:0400000081312829F9
:100008007E1480310B1A8B1C59280030F000003008
:10001800F1000030F20020003D08F3003E08F40033
:100028003F08F50083312A238031031C59288B109F
:100038004008FC007C08F0004208833157238031D7
:1000480001302000C0070030C13D0130C207003038
:10005800C33D4608FC007C08F00042088331572362
:10006800803101302000C2070030C33D4808FC0041
:100078007C08F0004208833157238031013020008A
:10008800C2070030C33D4A08FC007C08F000420863
:1000980083315723803101302000C2070030C33D2F
:1000A8000F148F10FD01FD0ACC018B1D7928270044
:1000B800961C792820003D08F0003E08F1003F0812
:1000C800F2000030F300B430F4004230F500833120
:1000D8002A238031031C79280B1027009610200052
:1000E8000F108F14FD01CC01CC0A8B1A0B1DAF2801
:1000F8000B118230200095007D3044064504031D15
:10010800A9280130CA070030CB3DC401C5013C30E5
:100118004A064B04031DAD280130C8070030C93D0D
:10012800CA01CB013C3048064904031DAD28013003
:10013800C6070030C73DC801C90118304606470444
:10014800031DAD28C601C701AD280130C407003022
:10015800C53D21009D142100111F26292000111FD3
:10016800262911132830A000A030A1003B30A2009E
:1001780021001C08F9001B08F8008331A3238031F3
:1001880078082000A3007908A4007A08A500823125
:100198002B2280312008CD002108CE002208CF0074
:1001A8000030B0008730B1004330B2000030A0000A
:1001B8009030A100C230A2004D08A3004E08A40050
:1001C8004F08A50082312B2280312008B300210876
:1001D800B4002208B5008131362180313008BD00D5
:1001E8003108BE003208BF004C03031D0F29003040
:1001F800F0000030F1000030F2003D08F3003E0846
:10020800F4003F08F50083312A238031031C0F29AD
:100218000F108F10CC017D03031D26293D08F00027
:100228003E08F1003F08F2000030F300B430F4005B
:100238004230F50083312A238031031C26290F1010
:100248008F10FD017E10090081312A29FD013D3002
:1002580084000030850013308331E0237E102000B5
:100268008331772B3008B6003108B7003208B80060
:100278000310370D380DB9003908BC003308B60033
:100288003408B7003508B8000310370D380DB90029
:100298003908BB003C0803195D293B083C020318D8
:1002A80064293B08B6003C08B60219303602031C24
:1002B80064293308B0003408B1003508B2000800DA
:1002C8003B08031908003C083B02031873293C0843
:1002D800B6003B08B602193036020318080006308B
:1002E800B6003608BA00B21BBA17B51B3A17B117D1
:1002F800FF30B005FF30B1050030B205B417FF304C
:10030800B305FF30B4050030B5053B083C020318BF
:10031800AF290130B335B40DB50D890B8E290130E5
:10032800BB023B083C060319AA290130BA023A0865
:1003380007390319AA298D290130B236B10CB00C3E
:10034800890BA1290130B6003608BC073C083B06DA
:100358000319D429A0293C083B020318D4290130E9
:10036800B035B10DB20D890BB4290130BC023B0880
:100378003C060319D0290130BA023A080739031993
:10038800D029B3290130B536B40CB30C890BC72971
:100398000130B6003608BB073C083B06031DC629DA
:1003A800BA1FE629FF30B006FF30B106FF30B206AB
:1003B8000130B007003003180130B10700300318CE
:1003C8000130B2073A1FF829FF30B306FF30B406F0
:1003D800FF30B5060130B307003003180130B40709
:1003E800003003180130B507BA013008B3073108E7
:1003F800B43D3208B53DB51F132AFF30B306FF30B0
:10040800B406FF30B5060130B307003003180130D9
:10041800B407003003180130B507BA01BA0A330827
:10042800F0003408F1003508F2003C08B600360840
:10043800F3003A08B7003708F4008231C622700882
:100448002000B0007108B1007208B200080020084E
:10045800A6002108A7002208A8000310270D280DD0
:10046800A9002908AA002A08031D412A0030A00073
:100478000030A1000030A20008002308A6002408CC
:10048800A7002508A8000310270D280DA900290892
:10049800AF002F08031D572A0030A0000030A1002C
:1004A8000030A20008002F087B3EA6002608AA07F5
:1004B8002208A6002608AF002508A6002608AF06D1
:1004C8008030A6002608AF05A117A417FF30A305A2
:1004D800FF30A4050030A5050030AB000030AC00AB
:1004E8000030AD000730A6002608AE00201C822A86
:1004F8002308AB072408AC3D2508AD3D0130A236E2
:10050800A10CA00C890B832A0130A335A40DA50DDD
:10051800890B892A0130AE02031D7A2A0930A60008
:100528002608AE00201C9E2A2308AB072408AC3DF1
:100538002508AD3D0130A236A10CA00C890B9F2ADD
:100548000130AD36AC0CAB0C890BA52A0130AE02DC
:10055800031D962A2B08F0002C08F1002D08F20044
:100568002A08A6002608F3002F08A7002708F40089
:100578008231C62270082000A0007108A10072080C
:10058800A200080073080319CE2A720871047004C7
:10059800031DDF2A0030F0000030F1000030F200C7
:1005A80008000130F5007508F3070130F236F10C48
:1005B800F00C890BDA2AFE3072050319F82AD52ABD
:1005C8000130F5007508F3070130F0070030031813
:1005D8000130F107003003180130F2070130F2361C
:1005E800F10CF00C890BF32AFF3072050319092B63
:1005F800E42A02307302031C0B2B0130F302013092
:10060800F035F10DF20D890B042BF11FFD2A73183B
:10061800132BFF30F0057F30F105FF30F205031092
:10062800F30C7308F500F601F7011030F535F60DF7
:10063800F70D890B1A2B7508F0047608F104770872
:10064800F204740803190800F2170800F21F392B86
:100658007008003CF0007108031C710F003CF100A9
:100668007208031C720F803CF200F51F482B7308B8
:10067800003CF3007408031C740F003CF400750878
:10068800031C750F803CF5008030F2068030F506BB
:1006980075087202031D080074087102031D080022
:1006A800730870020800F30023009518582B73088C
:1006B800F100F2017108910072089200700893002D
:1006C8003F30F1007108950503108B1B03148B1341
:1006D800151555309600AA30960095141511031C6F
:1006E80008008B17080083318D2383318331EE2373
:1006F80083318331D62383318331EB2383318331B3
:10070800E62383318331C72383318331B623833191
:100718008C2BFF3023008C00FF3021008C0023003D
:100728008D01FF3021008D0020000F108F10230055
:100738008F01FC3021008F0022008F01080078080B
:10074800F0007908F100F2018E30FB007B08F3001D
:10075800F4018231C6227008F8007108F9007208A5
:10076800FA0008008B170B170B118B168B100B1642
:100778000B108B15200011132100111720001212E5
:1007880021001216080021001D139D121D129D1133
:100798001D111D149E171E179E161E161E119E1043
:1007A8001E1008009512151295111515951415109F
:1007B8008230200095000800640080010131890B17
:1007C800E12B003423009513151315150800270095
:0A07D8009514080021001517080011
:020000040001F9
:04000E00E209FF1CE8
:00000001FF
